{
  "contractName": "Lottery",
  "abi": [
    {
      "constant": true,
      "inputs": [],
      "name": "isLotteryFinished",
      "outputs": [
        {
          "name": "",
          "type": "bool"
        }
      ],
      "payable": false,
      "stateMutability": "view",
      "type": "function"
    },
    {
      "constant": true,
      "inputs": [
        {
          "name": "",
          "type": "uint256"
        }
      ],
      "name": "participants",
      "outputs": [
        {
          "name": "",
          "type": "address"
        }
      ],
      "payable": false,
      "stateMutability": "view",
      "type": "function"
    },
    {
      "constant": true,
      "inputs": [],
      "name": "commit",
      "outputs": [
        {
          "name": "commit",
          "type": "bytes32"
        },
        {
          "name": "block",
          "type": "uint64"
        },
        {
          "name": "revealed",
          "type": "bool"
        }
      ],
      "payable": false,
      "stateMutability": "view",
      "type": "function"
    },
    {
      "constant": true,
      "inputs": [],
      "name": "owner",
      "outputs": [
        {
          "name": "",
          "type": "address"
        }
      ],
      "payable": false,
      "stateMutability": "view",
      "type": "function"
    },
    {
      "constant": true,
      "inputs": [],
      "name": "getTransferOwnership",
      "outputs": [
        {
          "name": "",
          "type": "address"
        }
      ],
      "payable": false,
      "stateMutability": "view",
      "type": "function"
    },
    {
      "constant": false,
      "inputs": [
        {
          "name": "_newOwner",
          "type": "address"
        }
      ],
      "name": "transferOwnership",
      "outputs": [],
      "payable": false,
      "stateMutability": "nonpayable",
      "type": "function"
    },
    {
      "inputs": [],
      "payable": false,
      "stateMutability": "nonpayable",
      "type": "constructor"
    },
    {
      "anonymous": false,
      "inputs": [
        {
          "indexed": false,
          "name": "contractAddr",
          "type": "address"
        },
        {
          "indexed": false,
          "name": "participant",
          "type": "address"
        }
      ],
      "name": "newParticipant",
      "type": "event"
    },
    {
      "anonymous": false,
      "inputs": [
        {
          "indexed": false,
          "name": "contractAddr",
          "type": "address"
        },
        {
          "indexed": false,
          "name": "winner",
          "type": "address"
        }
      ],
      "name": "gameFinished",
      "type": "event"
    },
    {
      "anonymous": false,
      "inputs": [
        {
          "indexed": false,
          "name": "sender",
          "type": "address"
        },
        {
          "indexed": false,
          "name": "dataHash",
          "type": "bytes32"
        },
        {
          "indexed": false,
          "name": "block",
          "type": "uint64"
        }
      ],
      "name": "CommitHash",
      "type": "event"
    },
    {
      "anonymous": false,
      "inputs": [
        {
          "indexed": false,
          "name": "sender",
          "type": "address"
        },
        {
          "indexed": false,
          "name": "revealHash",
          "type": "bytes32"
        },
        {
          "indexed": false,
          "name": "winner",
          "type": "address"
        }
      ],
      "name": "FinishLottery",
      "type": "event"
    },
    {
      "anonymous": false,
      "inputs": [
        {
          "indexed": true,
          "name": "previousOwner",
          "type": "address"
        },
        {
          "indexed": true,
          "name": "newOwner",
          "type": "address"
        }
      ],
      "name": "LogTransferOwnership",
      "type": "event"
    },
    {
      "constant": false,
      "inputs": [],
      "name": "becomeParticipant",
      "outputs": [],
      "payable": false,
      "stateMutability": "nonpayable",
      "type": "function"
    },
    {
      "constant": true,
      "inputs": [
        {
          "name": "data",
          "type": "bytes32"
        }
      ],
      "name": "getHash",
      "outputs": [
        {
          "name": "",
          "type": "bytes32"
        }
      ],
      "payable": false,
      "stateMutability": "view",
      "type": "function"
    },
    {
      "constant": true,
      "inputs": [
        {
          "name": "id",
          "type": "uint32"
        }
      ],
      "name": "getParticipantById",
      "outputs": [
        {
          "name": "",
          "type": "address"
        }
      ],
      "payable": false,
      "stateMutability": "view",
      "type": "function"
    },
    {
      "constant": false,
      "inputs": [
        {
          "name": "dataHash",
          "type": "bytes32"
        }
      ],
      "name": "commitHash",
      "outputs": [],
      "payable": false,
      "stateMutability": "nonpayable",
      "type": "function"
    },
    {
      "constant": false,
      "inputs": [
        {
          "name": "revealHash",
          "type": "bytes32"
        }
      ],
      "name": "finishLottery",
      "outputs": [],
      "payable": false,
      "stateMutability": "nonpayable",
      "type": "function"
    }
  ],
  "bytecode": "0x608060405234801561001057600080fd5b50336000806101000a81548173ffffffffffffffffffffffffffffffffffffffff021916908373ffffffffffffffffffffffffffffffffffffffff1602179055506000600460006101000a81548160ff021916908315150217905550610e918061007b6000396000f3fe608060405234801561001057600080fd5b50600436106100a95760003560e01c80633cf5040a116100715780633cf5040a1461022457806344d3ed62146102665780638da5cb5b146102945780638dabc4f3146102de578063e0755ab914610328578063f2fde38b14610332576100a9565b80631091ce5f146100ae57806326966aeb146100d057806335c1d349146101445780633c37b640146101b25780633c7a3aff146101e0575b600080fd5b6100b6610376565b604051808215151515815260200191505060405180910390f35b610102600480360360208110156100e657600080fd5b81019080803563ffffffff169060200190929190505050610389565b604051808273ffffffffffffffffffffffffffffffffffffffff1673ffffffffffffffffffffffffffffffffffffffff16815260200191505060405180910390f35b6101706004803603602081101561015a57600080fd5b8101908080359060200190929190505050610445565b604051808273ffffffffffffffffffffffffffffffffffffffff1673ffffffffffffffffffffffffffffffffffffffff16815260200191505060405180910390f35b6101de600480360360208110156101c857600080fd5b8101908080359060200190929190505050610481565b005b6101e86105d3565b604051808481526020018367ffffffffffffffff1667ffffffffffffffff16815260200182151515158152602001935050505060405180910390f35b6102506004803603602081101561023a57600080fd5b810190808035906020019092919050505061060c565b6040518082815260200191505060405180910390f35b6102926004803603602081101561027c57600080fd5b8101908080359060200190929190505050610673565b005b61029c610a21565b604051808273ffffffffffffffffffffffffffffffffffffffff1673ffffffffffffffffffffffffffffffffffffffff16815260200191505060405180910390f35b6102e6610a46565b604051808273ffffffffffffffffffffffffffffffffffffffff1673ffffffffffffffffffffffffffffffffffffffff16815260200191505060405180910390f35b610330610a6f565b005b6103746004803603602081101561034857600080fd5b81019080803573ffffffffffffffffffffffffffffffffffffffff169060200190929190505050610bda565b005b600460009054906101000a900460ff1681565b6000808263ffffffff16101580156103ab57506003805490508263ffffffff16105b610400576040517f08c379a000000000000000000000000000000000000000000000000000000000815260040180806020018281038252602f815260200180610d38602f913960400191505060405180910390fd5b60038263ffffffff168154811061041357fe5b9060005260206000200160009054906101000a900473ffffffffffffffffffffffffffffffffffffffff169050919050565b6003818154811061045257fe5b906000526020600020016000915054906101000a900473ffffffffffffffffffffffffffffffffffffffff1681565b6000809054906101000a900473ffffffffffffffffffffffffffffffffffffffff1673ffffffffffffffffffffffffffffffffffffffff163373ffffffffffffffffffffffffffffffffffffffff16146104da57600080fd5b80600160000181905550436001800160006101000a81548167ffffffffffffffff021916908367ffffffffffffffff16021790555060006001800160086101000a81548160ff0219169083151502179055507f3c1a1f8f38335b17f751c6da4ba7d1865f26b3997535176f5080de9fad891603336001600001546001800160009054906101000a900467ffffffffffffffff16604051808473ffffffffffffffffffffffffffffffffffffffff1673ffffffffffffffffffffffffffffffffffffffff1681526020018381526020018267ffffffffffffffff1667ffffffffffffffff168152602001935050505060405180910390a150565b60018060000154908060010160009054906101000a900467ffffffffffffffff16908060010160089054906101000a900460ff16905083565b60003082604051602001808373ffffffffffffffffffffffffffffffffffffffff1673ffffffffffffffffffffffffffffffffffffffff1660601b815260140182815260200192505050604051602081830303815290604052805190602001209050919050565b6000809054906101000a900473ffffffffffffffffffffffffffffffffffffffff1673ffffffffffffffffffffffffffffffffffffffff163373ffffffffffffffffffffffffffffffffffffffff16146106cc57600080fd5b600015156001800160089054906101000a900460ff1615151461073a576040517f08c379a0000000000000000000000000000000000000000000000000000000008152600401808060200182810382526028815260200180610dd46028913960400191505060405180910390fd5b60018060010160086101000a81548160ff0219169083151502179055506001600001546107668261060c565b146107bc576040517f08c379a000000000000000000000000000000000000000000000000000000000815260040180806020018281038252603b815260200180610e2b603b913960400191505060405180910390fd5b6001800160009054906101000a900467ffffffffffffffff1667ffffffffffffffff164367ffffffffffffffff1611610840576040517f08c379a0000000000000000000000000000000000000000000000000000000008152600401808060200182810382526044815260200180610d676044913960600191505060405180910390fd5b60fa6001800160009054906101000a900467ffffffffffffffff160167ffffffffffffffff164367ffffffffffffffff1611156108c8576040517f08c379a0000000000000000000000000000000000000000000000000000000008152600401808060200182810382526029815260200180610dab6029913960400191505060405180910390fd5b60006001800160009054906101000a900467ffffffffffffffff1667ffffffffffffffff16409050600060038054905063ffffffff16828460405160200180838152602001828152602001925050506040516020818303038152906040528051906020012060001c63ffffffff168161093d57fe5b0690507fb066fd6f6d7977f594e5112f1a64371713aa16b44cb9d264eed6079f98df4feb338460038463ffffffff168154811061097657fe5b9060005260206000200160009054906101000a900473ffffffffffffffffffffffffffffffffffffffff16604051808473ffffffffffffffffffffffffffffffffffffffff1673ffffffffffffffffffffffffffffffffffffffff1681526020018381526020018273ffffffffffffffffffffffffffffffffffffffff1673ffffffffffffffffffffffffffffffffffffffff168152602001935050505060405180910390a1505050565b6000809054906101000a900473ffffffffffffffffffffffffffffffffffffffff1681565b60008060009054906101000a900473ffffffffffffffffffffffffffffffffffffffff16905090565b60001515600460009054906101000a900460ff16151514610adb576040517f08c379a000000000000000000000000000000000000000000000000000000000815260040180806020018281038252602f815260200180610dfc602f913960400191505060405180910390fd5b60033390806001815401808255809150509060018203906000526020600020016000909192909190916101000a81548173ffffffffffffffffffffffffffffffffffffffff021916908373ffffffffffffffffffffffffffffffffffffffff160217905550507fe83724cfd6213e1ca8e053f3ce1163bc5fea531b9b733cc0b8443d16084c4c0d3033604051808373ffffffffffffffffffffffffffffffffffffffff1673ffffffffffffffffffffffffffffffffffffffff1681526020018273ffffffffffffffffffffffffffffffffffffffff1673ffffffffffffffffffffffffffffffffffffffff1681526020019250505060405180910390a1565b6000809054906101000a900473ffffffffffffffffffffffffffffffffffffffff1673ffffffffffffffffffffffffffffffffffffffff163373ffffffffffffffffffffffffffffffffffffffff1614610c3357600080fd5b610c3c81610c3f565b50565b600073ffffffffffffffffffffffffffffffffffffffff168173ffffffffffffffffffffffffffffffffffffffff161415610c7957600080fd5b8073ffffffffffffffffffffffffffffffffffffffff166000809054906101000a900473ffffffffffffffffffffffffffffffffffffffff1673ffffffffffffffffffffffffffffffffffffffff167f64b29884510e05067b4ed2199d3b82647dd4377a1a9b5d8c0bd88bbe23ec4dc660405160405180910390a3806000806101000a81548173ffffffffffffffffffffffffffffffffffffffff021916908373ffffffffffffffffffffffffffffffffffffffff1602179055505056fe4c6f74746572793a3a6765745061727469636970616e74427949643a206964206973206f7574206f662072616e67654c6f74746572793a3a66696e6973684c6f74746572793a2052657665616c20616e6420636f6d6d69742068617070656e6564206f6e207468652073616d6520626c6f636b4c6f74746572793a3a66696e6973684c6f74746572793a2052657665616c656420746f6f206c6174654c6f74746572793a3a66696e6973684c6f74746572793a20416c72656164792072657665616c65644c6f74746572793a3a6265636f6d655061727469636970616e743a204c6f74746572792069732066696e69736865644c6f74746572793a3a66696e6973684c6f74746572793a2052657665616c6564206861736820646f6573206e6f74206d6174636820636f6d6d6974a165627a7a72305820eb9ff741448aff99c992a5bb3146c59c0d83aa402d8dcbff953304bb5b38a9120029",
  "source": "pragma solidity >=0.5.8 < 0.6.0;\r\n\r\nimport \"./Ownable.sol\";\r\n\r\ncontract Lottery is Ownable {\r\n    struct Commit {\r\n        bytes32 commit;\r\n        uint64 block;\r\n        bool revealed;\r\n    }\r\n\r\n    Commit public commit;\r\n    address[] public participants;\r\n    bool public isLotteryFinished;\r\n\r\n    event newParticipant(address contractAddr, address participant);\r\n    event gameFinished(address contractAddr, address winner);\r\n    event CommitHash(address sender, bytes32 dataHash, uint64 block);\r\n    event FinishLottery(address sender, bytes32 revealHash, address winner);\r\n\r\n    constructor() public {\r\n        isLotteryFinished = false;\r\n    }\r\n\r\n    function becomeParticipant() public {\r\n        require(isLotteryFinished == false, \"Lottery::becomeParticipant: Lottery is finished\");\r\n        participants.push(msg.sender);\r\n        emit newParticipant(address(this), msg.sender);\r\n    }\r\n\r\n    function getHash(bytes32 data) public view returns (bytes32){\r\n        return keccak256(abi.encodePacked(address(this), data));\r\n    }\r\n\r\n    function getParticipantById(uint32 id) public view returns (address) {\r\n        require(id >= 0 && id < participants.length, \"Lottery::getParticipantById: id is out of range\");\r\n        return participants[id];\r\n    }\r\n\r\n    function commitHash(bytes32 dataHash) public onlyOwner {\r\n        commit.commit = dataHash;\r\n        commit.block = uint64(block.number);\r\n        commit.revealed = false;\r\n        emit CommitHash(msg.sender, commit.commit, commit.block);\r\n    }\r\n\r\n    function finishLottery(bytes32 revealHash) public onlyOwner {\r\n        require(commit.revealed == false, \"Lottery::finishLottery: Already revealed\");\r\n        commit.revealed = true;\r\n        require(getHash(revealHash) == commit.commit, \"Lottery::finishLottery: Revealed hash does not match commit\");\r\n        require(uint64(block.number) > commit.block, \"Lottery::finishLottery: Reveal and commit happened on the same block\");\r\n        require(uint64(block.number) <= commit.block + 250, \"Lottery::finishLottery: Revealed too late\");\r\n        bytes32 blockHash = blockhash(commit.block);\r\n        uint32 random = uint32(uint256(keccak256(abi.encodePacked(blockHash, revealHash)))) % uint32(participants.length);\r\n\r\n        emit FinishLottery(msg.sender, revealHash, participants[random]);\r\n    }\r\n}",
  "sourcePath": "D:/projects/lottery-sc/contracts/Lottery.sol",
  "compiler": {
    "name": "solc",
    "version": "0.5.8+commit.23d335f2.Emscripten.clang"
  },
  "schemaVersion": "3.0.16",
  "updatedAt": "2019-10-06T17:00:13.174Z",
  "devdoc": {
    "methods": {}
  },
  "userdoc": {
    "methods": {}
  }
}